{
  "contractName": "Clinic",
  "abi": [
    {
      "inputs": [
        {
          "internalType": "address",
          "name": "DoctorContractAddress",
          "type": "address"
        },
        {
          "internalType": "address",
          "name": "PatientContractAddress",
          "type": "address"
        }
      ],
      "stateMutability": "nonpayable",
      "type": "constructor"
    },
    {
      "anonymous": false,
      "inputs": [
        {
          "indexed": true,
          "internalType": "address",
          "name": "clinicId",
          "type": "address"
        },
        {
          "indexed": false,
          "internalType": "string",
          "name": "clinicName",
          "type": "string"
        }
      ],
      "name": "ClinicAdded",
      "type": "event"
    },
    {
      "anonymous": false,
      "inputs": [
        {
          "indexed": true,
          "internalType": "address",
          "name": "doctorId",
          "type": "address"
        }
      ],
      "name": "DoctorAdded",
      "type": "event"
    },
    {
      "inputs": [
        {
          "internalType": "address",
          "name": "",
          "type": "address"
        }
      ],
      "name": "clinics",
      "outputs": [
        {
          "internalType": "address",
          "name": "id",
          "type": "address"
        },
        {
          "internalType": "string",
          "name": "name",
          "type": "string"
        },
        {
          "internalType": "string",
          "name": "password",
          "type": "string"
        }
      ],
      "stateMutability": "view",
      "type": "function",
      "constant": true
    },
    {
      "inputs": [
        {
          "internalType": "string",
          "name": "_clinicName",
          "type": "string"
        },
        {
          "internalType": "string",
          "name": "_password",
          "type": "string"
        }
      ],
      "name": "addClinic",
      "outputs": [],
      "stateMutability": "nonpayable",
      "type": "function"
    },
    {
      "inputs": [
        {
          "internalType": "string",
          "name": "_password",
          "type": "string"
        }
      ],
      "name": "checkClinic",
      "outputs": [
        {
          "internalType": "bool",
          "name": "",
          "type": "bool"
        }
      ],
      "stateMutability": "view",
      "type": "function",
      "constant": true
    },
    {
      "inputs": [
        {
          "internalType": "address",
          "name": "_doctorId",
          "type": "address"
        },
        {
          "internalType": "string",
          "name": "_doctorName",
          "type": "string"
        },
        {
          "internalType": "string",
          "name": "_clinicName",
          "type": "string"
        },
        {
          "internalType": "string",
          "name": "_dept",
          "type": "string"
        },
        {
          "internalType": "string",
          "name": "_password",
          "type": "string"
        }
      ],
      "name": "clinicAddDoctor",
      "outputs": [],
      "stateMutability": "nonpayable",
      "type": "function"
    }
  ],
  "bytecode": "0x60806040523480156200001157600080fd5b506040516200133c3803806200133c83398181016040528101906200003791906200012a565b816000806101000a81548173ffffffffffffffffffffffffffffffffffffffff021916908373ffffffffffffffffffffffffffffffffffffffff16021790555080600160006101000a81548173ffffffffffffffffffffffffffffffffffffffff021916908373ffffffffffffffffffffffffffffffffffffffff160217905550505062000171565b600080fd5b600073ffffffffffffffffffffffffffffffffffffffff82169050919050565b6000620000f282620000c5565b9050919050565b6200010481620000e5565b81146200011057600080fd5b50565b6000815190506200012481620000f9565b92915050565b60008060408385031215620001445762000143620000c0565b5b6000620001548582860162000113565b9250506020620001678582860162000113565b9150509250929050565b6111bb80620001816000396000f3fe608060405234801561001057600080fd5b506004361061004c5760003560e01c806308751106146100515780631b3db88b14610081578063646077511461009d57806378aa8409146100cf575b600080fd5b61006b60048036038101906100669190610907565b6100eb565b604051610078919061096b565b60405180910390f35b61009b600480360381019061009691906109e4565b61022e565b005b6100b760048036038101906100b29190610acf565b6103e2565b6040516100c693929190610b8a565b60405180910390f35b6100e960048036038101906100e49190610bcf565b61053c565b005b60003373ffffffffffffffffffffffffffffffffffffffff16600260003373ffffffffffffffffffffffffffffffffffffffff1673ffffffffffffffffffffffffffffffffffffffff16815260200190815260200160002060000160009054906101000a900473ffffffffffffffffffffffffffffffffffffffff1673ffffffffffffffffffffffffffffffffffffffff161480156102165750816040516020016101969190610c83565b60405160208183030381529060405280519060200120600260003373ffffffffffffffffffffffffffffffffffffffff1673ffffffffffffffffffffffffffffffffffffffff1681526020019081526020016000206002016040516020016101fe9190610d92565b60405160208183030381529060405280519060200120145b156102245760019050610229565b600090505b919050565b3373ffffffffffffffffffffffffffffffffffffffff16600260003373ffffffffffffffffffffffffffffffffffffffff1673ffffffffffffffffffffffffffffffffffffffff16815260200190815260200160002060000160009054906101000a900473ffffffffffffffffffffffffffffffffffffffff1673ffffffffffffffffffffffffffffffffffffffff16146102fe576040517f08c379a00000000000000000000000000000000000000000000000000000000081526004016102f590610df5565b60405180910390fd5b60008060009054906101000a900473ffffffffffffffffffffffffffffffffffffffff1690508073ffffffffffffffffffffffffffffffffffffffff16639537dfcd87878787876040518663ffffffff1660e01b8152600401610365959493929190610e15565b600060405180830381600087803b15801561037f57600080fd5b505af1158015610393573d6000803e3d6000fd5b505050508573ffffffffffffffffffffffffffffffffffffffff167f69908b2e63170aa89ef89719bbe3b4c92cccc38653968ab25f4464eff7c28ac860405160405180910390a2505050505050565b60026020528060005260406000206000915090508060000160009054906101000a900473ffffffffffffffffffffffffffffffffffffffff169080600101805461042b90610cc9565b80601f016020809104026020016040519081016040528092919081815260200182805461045790610cc9565b80156104a45780601f10610479576101008083540402835291602001916104a4565b820191906000526020600020905b81548152906001019060200180831161048757829003601f168201915b5050505050908060020180546104b990610cc9565b80601f01602080910402602001604051908101604052809291908181526020018280546104e590610cc9565b80156105325780601f1061050757610100808354040283529160200191610532565b820191906000526020600020905b81548152906001019060200180831161051557829003601f168201915b5050505050905083565b3373ffffffffffffffffffffffffffffffffffffffff16600260003373ffffffffffffffffffffffffffffffffffffffff1673ffffffffffffffffffffffffffffffffffffffff16815260200190815260200160002060000160009054906101000a900473ffffffffffffffffffffffffffffffffffffffff1673ffffffffffffffffffffffffffffffffffffffff160361060c576040517f08c379a000000000000000000000000000000000000000000000000000000000815260040161060390610ed0565b60405180910390fd5b600060405180606001604052803373ffffffffffffffffffffffffffffffffffffffff16815260200184815260200183815250905080600260003373ffffffffffffffffffffffffffffffffffffffff1673ffffffffffffffffffffffffffffffffffffffff16815260200190815260200160002060008201518160000160006101000a81548173ffffffffffffffffffffffffffffffffffffffff021916908373ffffffffffffffffffffffffffffffffffffffff16021790555060208201518160010190816106dd9190611091565b5060408201518160020190816106f39190611091565b509050506003339080600181540180825580915050600190039060005260206000200160009091909190916101000a81548173ffffffffffffffffffffffffffffffffffffffff021916908373ffffffffffffffffffffffffffffffffffffffff1602179055503373ffffffffffffffffffffffffffffffffffffffff167f8a7395e5a96124fa64fb295b28840b4404661f0a1888a597477e870fba236053846040516107a09190611163565b60405180910390a2505050565b6000604051905090565b600080fd5b600080fd5b600080fd5b600080fd5b6000601f19601f8301169050919050565b7f4e487b7100000000000000000000000000000000000000000000000000000000600052604160045260246000fd5b610814826107cb565b810181811067ffffffffffffffff82111715610833576108326107dc565b5b80604052505050565b60006108466107ad565b9050610852828261080b565b919050565b600067ffffffffffffffff821115610872576108716107dc565b5b61087b826107cb565b9050602081019050919050565b82818337600083830152505050565b60006108aa6108a584610857565b61083c565b9050828152602081018484840111156108c6576108c56107c6565b5b6108d1848285610888565b509392505050565b600082601f8301126108ee576108ed6107c1565b5b81356108fe848260208601610897565b91505092915050565b60006020828403121561091d5761091c6107b7565b5b600082013567ffffffffffffffff81111561093b5761093a6107bc565b5b610947848285016108d9565b91505092915050565b60008115159050919050565b61096581610950565b82525050565b6000602082019050610980600083018461095c565b92915050565b600073ffffffffffffffffffffffffffffffffffffffff82169050919050565b60006109b182610986565b9050919050565b6109c1816109a6565b81146109cc57600080fd5b50565b6000813590506109de816109b8565b92915050565b600080600080600060a08688031215610a00576109ff6107b7565b5b6000610a0e888289016109cf565b955050602086013567ffffffffffffffff811115610a2f57610a2e6107bc565b5b610a3b888289016108d9565b945050604086013567ffffffffffffffff811115610a5c57610a5b6107bc565b5b610a68888289016108d9565b935050606086013567ffffffffffffffff811115610a8957610a886107bc565b5b610a95888289016108d9565b925050608086013567ffffffffffffffff811115610ab657610ab56107bc565b5b610ac2888289016108d9565b9150509295509295909350565b600060208284031215610ae557610ae46107b7565b5b6000610af3848285016109cf565b91505092915050565b610b05816109a6565b82525050565b600081519050919050565b600082825260208201905092915050565b60005b83811015610b45578082015181840152602081019050610b2a565b60008484015250505050565b6000610b5c82610b0b565b610b668185610b16565b9350610b76818560208601610b27565b610b7f816107cb565b840191505092915050565b6000606082019050610b9f6000830186610afc565b8181036020830152610bb18185610b51565b90508181036040830152610bc58184610b51565b9050949350505050565b60008060408385031215610be657610be56107b7565b5b600083013567ffffffffffffffff811115610c0457610c036107bc565b5b610c10858286016108d9565b925050602083013567ffffffffffffffff811115610c3157610c306107bc565b5b610c3d858286016108d9565b9150509250929050565b600081905092915050565b6000610c5d82610b0b565b610c678185610c47565b9350610c77818560208601610b27565b80840191505092915050565b6000610c8f8284610c52565b915081905092915050565b7f4e487b7100000000000000000000000000000000000000000000000000000000600052602260045260246000fd5b60006002820490506001821680610ce157607f821691505b602082108103610cf457610cf3610c9a565b5b50919050565b60008190508160005260206000209050919050565b60008154610d1c81610cc9565b610d268186610c47565b94506001821660008114610d415760018114610d5657610d89565b60ff1983168652811515820286019350610d89565b610d5f85610cfa565b60005b83811015610d8157815481890152600182019150602081019050610d62565b838801955050505b50505092915050565b6000610d9e8284610d0f565b915081905092915050565b7f436c696e696320646f6573206e6f742065786973740000000000000000000000600082015250565b6000610ddf601583610b16565b9150610dea82610da9565b602082019050919050565b60006020820190508181036000830152610e0e81610dd2565b9050919050565b600060a082019050610e2a6000830188610afc565b8181036020830152610e3c8187610b51565b90508181036040830152610e508186610b51565b90508181036060830152610e648185610b51565b90508181036080830152610e788184610b51565b90509695505050505050565b7f5468697320636c696e696320616c7265616479206578697374732e0000000000600082015250565b6000610eba601b83610b16565b9150610ec582610e84565b602082019050919050565b60006020820190508181036000830152610ee981610ead565b9050919050565b60006020601f8301049050919050565b600082821b905092915050565b600060088302610f3d7fffffffffffffffffffffffffffffffffffffffffffffffffffffffffffffffff82610f00565b610f478683610f00565b95508019841693508086168417925050509392505050565b6000819050919050565b6000819050919050565b6000610f8e610f89610f8484610f5f565b610f69565b610f5f565b9050919050565b6000819050919050565b610fa883610f73565b610fbc610fb482610f95565b848454610f0d565b825550505050565b600090565b610fd1610fc4565b610fdc818484610f9f565b505050565b5b8181101561100057610ff5600082610fc9565b600181019050610fe2565b5050565b601f8211156110455761101681610cfa565b61101f84610ef0565b8101602085101561102e578190505b61104261103a85610ef0565b830182610fe1565b50505b505050565b600082821c905092915050565b60006110686000198460080261104a565b1980831691505092915050565b60006110818383611057565b9150826002028217905092915050565b61109a82610b0b565b67ffffffffffffffff8111156110b3576110b26107dc565b5b6110bd8254610cc9565b6110c8828285611004565b600060209050601f8311600181146110fb57600084156110e9578287015190505b6110f38582611075565b86555061115b565b601f19841661110986610cfa565b60005b828110156111315784890151825560018201915060208501945060208101905061110c565b8683101561114e578489015161114a601f891682611057565b8355505b6001600288020188555050505b505050505050565b6000602082019050818103600083015261117d8184610b51565b90509291505056fea26469706673582212200046e45352a98c98f1157fb4b52e756a77ddabbe970ecfbc7aed372b19c94ab464736f6c63430008110033",
  "immutableReferences": {},
  "source": "// SPDX-License-Identifier: MIT\npragma solidity >= 0.4.22 <0.9.0;\n\n// Using Doctor and Patient Contracts here as well\nimport \"./Doctor.sol\";\nimport \"./Patient.sol\";\n\n// Let's inherit from both the Doctor and Patient Smart Contracts\ncontract Clinic {\n    // So to deploy Clinic contract first the doctor and patient contracts should have been deployed first.\n    // The Clinic constructor takes in as input the doctorContract and patientContract address\n    address doctorContractAddress;\n    address patientContractAddress;\n\n    constructor(\n      address DoctorContractAddress,\n      address PatientContractAddress\n    ){\n        doctorContractAddress = DoctorContractAddress;\n        patientContractAddress = PatientContractAddress;\n    }\n\n    // This structure would capture the clinic entity\n    struct ClinicDetails {\n        address id;\n        string name;\n        string password;\n    }\n\n    // All the data structures used for storing clinic details defined \n    mapping (address => ClinicDetails) public clinics;\n    address[] clinicAddress;\n    // Doctor doctorContract = Doctor(doctorContractAddress);\n\n    // All the events to be emitted here\n    event ClinicAdded(address indexed clinicId, string clinicName);\n    event DoctorAdded(address indexed doctorId);\n\n    // All the modifiers used have been defined below\n    modifier senderIsClinic {\n        require(clinics[msg.sender].id == msg.sender, \"Clinic does not exist\");\n        _;\n    }\n\n    // All the method definition below\n    function addClinic(string memory _clinicName, string memory _password) public {\n        require(clinics[msg.sender].id != msg.sender, \"This clinic already exists.\");\n        ClinicDetails memory clinic = ClinicDetails(msg.sender, _clinicName, _password);\n        clinics[msg.sender] = clinic; \n        clinicAddress.push(msg.sender);\n\n        emit ClinicAdded(msg.sender, _clinicName);\n    }\n\n    function checkClinic(string memory _password) public view returns (bool) {\n        if(clinics[msg.sender].id == msg.sender && \n                (keccak256(abi.encodePacked(clinics[msg.sender].password)) == keccak256(abi.encodePacked(_password)))) {\n                return true;\n        } \n        return false;\n    }\n\n    function clinicAddDoctor(address _doctorId, string memory _doctorName, string memory _clinicName, string memory _dept, string memory _password) \n           senderIsClinic public {\n        Doctor doctorContract = Doctor(doctorContractAddress);\n        doctorContract.addDoctor(_doctorId, _doctorName, _clinicName, _dept, _password);\n        emit DoctorAdded(_doctorId);\n    }\n\n    // function clinicGetRegisteredDoctors() public view senderIsClinic {\n    //     Doctor doctorContract = Doctor(doctorContractAddress);\n    //     doctorContract.getRegisteredDoctors();\n    // }\n} \n",
  "sourcePath": "/home/suvam/Documents/ProjectIntegrated/Using Axios/truffle/contracts/Clinic.sol",
  "compiler": {
    "name": "solc",
    "version": "0.8.17+commit.8df45f5f.Emscripten.clang"
  },
  "schemaVersion": "3.4.10",
  "updatedAt": "2023-03-06T09:46:09.928Z",
  "networkType": "ethereum",
  "devdoc": {
    "kind": "dev",
    "methods": {},
    "version": 1
  },
  "userdoc": {
    "kind": "user",
    "methods": {},
    "version": 1
  }
}