{
  "contractName": "Doctor",
  "abi": [
    {
      "inputs": [
        {
          "internalType": "address",
          "name": "PatientContractAddress",
          "type": "address"
        }
      ],
      "stateMutability": "nonpayable",
      "type": "constructor"
    },
    {
      "anonymous": false,
      "inputs": [
        {
          "indexed": true,
          "internalType": "address",
          "name": "patientId",
          "type": "address"
        }
      ],
      "name": "PatientAdded",
      "type": "event"
    },
    {
      "anonymous": false,
      "inputs": [
        {
          "indexed": false,
          "internalType": "string",
          "name": "_cid",
          "type": "string"
        },
        {
          "indexed": false,
          "internalType": "address",
          "name": "_patientId",
          "type": "address"
        },
        {
          "indexed": false,
          "internalType": "string",
          "name": "_patientName",
          "type": "string"
        },
        {
          "indexed": false,
          "internalType": "string",
          "name": "_doctorName",
          "type": "string"
        },
        {
          "indexed": false,
          "internalType": "address",
          "name": "_doctorId",
          "type": "address"
        },
        {
          "indexed": false,
          "internalType": "string",
          "name": "symptoms",
          "type": "string"
        },
        {
          "indexed": false,
          "internalType": "string",
          "name": "diagnostic",
          "type": "string"
        },
        {
          "indexed": false,
          "internalType": "string",
          "name": "department",
          "type": "string"
        },
        {
          "indexed": false,
          "internalType": "uint256",
          "name": "time",
          "type": "uint256"
        }
      ],
      "name": "RecordAdded",
      "type": "event"
    },
    {
      "inputs": [
        {
          "internalType": "address",
          "name": "_doctorId",
          "type": "address"
        },
        {
          "internalType": "string",
          "name": "_doctorName",
          "type": "string"
        },
        {
          "internalType": "string",
          "name": "_clinicName",
          "type": "string"
        },
        {
          "internalType": "string",
          "name": "_dept",
          "type": "string"
        },
        {
          "internalType": "string",
          "name": "_password",
          "type": "string"
        }
      ],
      "name": "addDoctor",
      "outputs": [],
      "stateMutability": "nonpayable",
      "type": "function"
    },
    {
      "inputs": [
        {
          "internalType": "address",
          "name": "_doctorId",
          "type": "address"
        },
        {
          "internalType": "string",
          "name": "_password",
          "type": "string"
        }
      ],
      "name": "checkDoctor",
      "outputs": [
        {
          "internalType": "bool",
          "name": "",
          "type": "bool"
        }
      ],
      "stateMutability": "view",
      "type": "function",
      "constant": true
    },
    {
      "inputs": [
        {
          "internalType": "address",
          "name": "_patientId",
          "type": "address"
        },
        {
          "internalType": "string",
          "name": "_name",
          "type": "string"
        },
        {
          "internalType": "string",
          "name": "_department",
          "type": "string"
        },
        {
          "internalType": "string",
          "name": "_password",
          "type": "string"
        }
      ],
      "name": "doctorAddPatient",
      "outputs": [],
      "stateMutability": "nonpayable",
      "type": "function"
    },
    {
      "inputs": [
        {
          "internalType": "string",
          "name": "_cid",
          "type": "string"
        },
        {
          "internalType": "address",
          "name": "_patientId",
          "type": "address"
        },
        {
          "internalType": "string",
          "name": "_patientName",
          "type": "string"
        },
        {
          "internalType": "string",
          "name": "_doctorName",
          "type": "string"
        },
        {
          "internalType": "address",
          "name": "_doctorId",
          "type": "address"
        },
        {
          "internalType": "string",
          "name": "symptoms",
          "type": "string"
        },
        {
          "internalType": "string",
          "name": "diagnostic",
          "type": "string"
        },
        {
          "internalType": "string",
          "name": "department",
          "type": "string"
        }
      ],
      "name": "doctorAddRecord",
      "outputs": [],
      "stateMutability": "nonpayable",
      "type": "function"
    },
    {
      "inputs": [
        {
          "internalType": "address",
          "name": "_patientId",
          "type": "address"
        }
      ],
      "name": "doctorGetPatientRecords",
      "outputs": [],
      "stateMutability": "view",
      "type": "function",
      "constant": true
    },
    {
      "inputs": [],
      "name": "getRegisteredDoctors",
      "outputs": [
        {
          "components": [
            {
              "internalType": "address",
              "name": "id",
              "type": "address"
            },
            {
              "internalType": "string",
              "name": "name",
              "type": "string"
            },
            {
              "internalType": "string",
              "name": "clinicName",
              "type": "string"
            },
            {
              "internalType": "string",
              "name": "department",
              "type": "string"
            },
            {
              "internalType": "string",
              "name": "password",
              "type": "string"
            }
          ],
          "internalType": "struct Doctor.DoctorDetails[]",
          "name": "",
          "type": "tuple[]"
        }
      ],
      "stateMutability": "view",
      "type": "function",
      "constant": true
    },
    {
      "inputs": [
        {
          "internalType": "string",
          "name": "deptName",
          "type": "string"
        }
      ],
      "name": "getRegisteredDoctorsByDept",
      "outputs": [
        {
          "components": [
            {
              "internalType": "address",
              "name": "id",
              "type": "address"
            },
            {
              "internalType": "string",
              "name": "name",
              "type": "string"
            },
            {
              "internalType": "string",
              "name": "clinicName",
              "type": "string"
            },
            {
              "internalType": "string",
              "name": "department",
              "type": "string"
            },
            {
              "internalType": "string",
              "name": "password",
              "type": "string"
            }
          ],
          "internalType": "struct Doctor.DoctorDetails[]",
          "name": "",
          "type": "tuple[]"
        }
      ],
      "stateMutability": "view",
      "type": "function",
      "constant": true
    }
  ],
  "bytecode": "0x60806040523480156200001157600080fd5b5060405162002583380380620025838339818101604052810190620000379190620000e8565b806000806101000a81548173ffffffffffffffffffffffffffffffffffffffff021916908373ffffffffffffffffffffffffffffffffffffffff160217905550506200011a565b600080fd5b600073ffffffffffffffffffffffffffffffffffffffff82169050919050565b6000620000b08262000083565b9050919050565b620000c281620000a3565b8114620000ce57600080fd5b50565b600081519050620000e281620000b7565b92915050565b6000602082840312156200010157620001006200007e565b5b60006200011184828501620000d1565b91505092915050565b612459806200012a6000396000f3fe608060405234801561001057600080fd5b506004361061007d5760003560e01c80639537dfcd1161005b5780639537dfcd146100ec578063a7a25d6d14610108578063ace6c10914610138578063c30fc98c146101545761007d565b806330c0dfc1146100825780636dcf4e33146100a05780637f577da8146100d0575b600080fd5b61008a610170565b6040516100979190611427565b60405180910390f35b6100ba60048036038101906100b591906115be565b61053e565b6040516100c79190611635565b60405180910390f35b6100ea60048036038101906100e59190611650565b610682565b005b6101066004803603810190610101919061167d565b61072c565b005b610122600480360381019061011d9190611768565b61098a565b60405161012f9190611427565b60405180910390f35b610152600480360381019061014d91906117b1565b610e4a565b005b61016e6004803603810190610169919061186c565b610ffb565b005b6060600060028054905067ffffffffffffffff81111561019357610192611493565b5b6040519080825280602002602001820160405280156101cc57816020015b6101b96111c4565b8152602001906001900390816101b15790505b50905060005b6002805490508110156105365760016000600283815481106101f7576101f66119ca565b5b9060005260206000200160009054906101000a900473ffffffffffffffffffffffffffffffffffffffff1673ffffffffffffffffffffffffffffffffffffffff1673ffffffffffffffffffffffffffffffffffffffff1681526020019081526020016000206040518060a00160405290816000820160009054906101000a900473ffffffffffffffffffffffffffffffffffffffff1673ffffffffffffffffffffffffffffffffffffffff1673ffffffffffffffffffffffffffffffffffffffff1681526020016001820180546102cd90611a28565b80601f01602080910402602001604051908101604052809291908181526020018280546102f990611a28565b80156103465780601f1061031b57610100808354040283529160200191610346565b820191906000526020600020905b81548152906001019060200180831161032957829003601f168201915b5050505050815260200160028201805461035f90611a28565b80601f016020809104026020016040519081016040528092919081815260200182805461038b90611a28565b80156103d85780601f106103ad576101008083540402835291602001916103d8565b820191906000526020600020905b8154815290600101906020018083116103bb57829003601f168201915b505050505081526020016003820180546103f190611a28565b80601f016020809104026020016040519081016040528092919081815260200182805461041d90611a28565b801561046a5780601f1061043f5761010080835404028352916020019161046a565b820191906000526020600020905b81548152906001019060200180831161044d57829003601f168201915b5050505050815260200160048201805461048390611a28565b80601f01602080910402602001604051908101604052809291908181526020018280546104af90611a28565b80156104fc5780601f106104d1576101008083540402835291602001916104fc565b820191906000526020600020905b8154815290600101906020018083116104df57829003601f168201915b505050505081525050828281518110610518576105176119ca565b5b6020026020010181905250808061052e90611a92565b9150506101d2565b508091505090565b60008273ffffffffffffffffffffffffffffffffffffffff16600160008573ffffffffffffffffffffffffffffffffffffffff1673ffffffffffffffffffffffffffffffffffffffff16815260200190815260200160002060000160009054906101000a900473ffffffffffffffffffffffffffffffffffffffff1673ffffffffffffffffffffffffffffffffffffffff161480156106695750816040516020016105e99190611b16565b60405160208183030381529060405280519060200120600160008573ffffffffffffffffffffffffffffffffffffffff1673ffffffffffffffffffffffffffffffffffffffff1681526020019081526020016000206004016040516020016106519190611bc5565b60405160208183030381529060405280519060200120145b15610677576001905061067c565b600090505b92915050565b60008060009054906101000a900473ffffffffffffffffffffffffffffffffffffffff1690508073ffffffffffffffffffffffffffffffffffffffff1663a0076e84836040518263ffffffff1660e01b81526004016106e19190611beb565b600060405180830381865afa1580156106fe573d6000803e3d6000fd5b505050506040513d6000823e3d601f19601f820116820180604052508101906107279190611f2f565b505050565b8473ffffffffffffffffffffffffffffffffffffffff16600160008773ffffffffffffffffffffffffffffffffffffffff1673ffffffffffffffffffffffffffffffffffffffff16815260200190815260200160002060000160009054906101000a900473ffffffffffffffffffffffffffffffffffffffff1673ffffffffffffffffffffffffffffffffffffffff16036107fc576040517f08c379a00000000000000000000000000000000000000000000000000000000081526004016107f390611fd5565b60405180910390fd5b60006040518060a001604052808773ffffffffffffffffffffffffffffffffffffffff16815260200186815260200185815260200184815260200183815250905080600160008873ffffffffffffffffffffffffffffffffffffffff1673ffffffffffffffffffffffffffffffffffffffff16815260200190815260200160002060008201518160000160006101000a81548173ffffffffffffffffffffffffffffffffffffffff021916908373ffffffffffffffffffffffffffffffffffffffff16021790555060208201518160010190816108d9919061218c565b5060408201518160020190816108ef919061218c565b506060820151816003019081610905919061218c565b50608082015181600401908161091b919061218c565b509050506002869080600181540180825580915050600190039060005260206000200160009091909190916101000a81548173ffffffffffffffffffffffffffffffffffffffff021916908373ffffffffffffffffffffffffffffffffffffffff160217905550505050505050565b6060600060028054905067ffffffffffffffff8111156109ad576109ac611493565b5b6040519080825280602002602001820160405280156109e657816020015b6109d36111c4565b8152602001906001900390816109cb5790505b5090506000805b600280549050811015610e325784604051602001610a0b9190611b16565b604051602081830303815290604052805190602001206001600060028481548110610a3957610a386119ca565b5b9060005260206000200160009054906101000a900473ffffffffffffffffffffffffffffffffffffffff1673ffffffffffffffffffffffffffffffffffffffff1673ffffffffffffffffffffffffffffffffffffffff168152602001908152602001600020600301604051602001610ab19190611bc5565b6040516020818303038152906040528051906020012003610e1f576001600060028381548110610ae457610ae36119ca565b5b9060005260206000200160009054906101000a900473ffffffffffffffffffffffffffffffffffffffff1673ffffffffffffffffffffffffffffffffffffffff1673ffffffffffffffffffffffffffffffffffffffff1681526020019081526020016000206040518060a00160405290816000820160009054906101000a900473ffffffffffffffffffffffffffffffffffffffff1673ffffffffffffffffffffffffffffffffffffffff1673ffffffffffffffffffffffffffffffffffffffff168152602001600182018054610bba90611a28565b80601f0160208091040260200160405190810160405280929190818152602001828054610be690611a28565b8015610c335780601f10610c0857610100808354040283529160200191610c33565b820191906000526020600020905b815481529060010190602001808311610c1657829003601f168201915b50505050508152602001600282018054610c4c90611a28565b80601f0160208091040260200160405190810160405280929190818152602001828054610c7890611a28565b8015610cc55780601f10610c9a57610100808354040283529160200191610cc5565b820191906000526020600020905b815481529060010190602001808311610ca857829003601f168201915b50505050508152602001600382018054610cde90611a28565b80601f0160208091040260200160405190810160405280929190818152602001828054610d0a90611a28565b8015610d575780601f10610d2c57610100808354040283529160200191610d57565b820191906000526020600020905b815481529060010190602001808311610d3a57829003601f168201915b50505050508152602001600482018054610d7090611a28565b80601f0160208091040260200160405190810160405280929190818152602001828054610d9c90611a28565b8015610de95780601f10610dbe57610100808354040283529160200191610de9565b820191906000526020600020905b815481529060010190602001808311610dcc57829003601f168201915b505050505081525050838381518110610e0557610e046119ca565b5b60200260200101819052508180610e1b90611a92565b9250505b8080610e2a90611a92565b9150506109ed565b508151811015610e40578082525b8192505050919050565b3373ffffffffffffffffffffffffffffffffffffffff16600160003373ffffffffffffffffffffffffffffffffffffffff1673ffffffffffffffffffffffffffffffffffffffff16815260200190815260200160002060000160009054906101000a900473ffffffffffffffffffffffffffffffffffffffff1673ffffffffffffffffffffffffffffffffffffffff1614610f1a576040517f08c379a0000000000000000000000000000000000000000000000000000000008152600401610f11906122aa565b60405180910390fd5b60008060009054906101000a900473ffffffffffffffffffffffffffffffffffffffff1690508073ffffffffffffffffffffffffffffffffffffffff16632c76361f868686866040518563ffffffff1660e01b8152600401610f7f9493929190612303565b600060405180830381600087803b158015610f9957600080fd5b505af1158015610fad573d6000803e3d6000fd5b505050508473ffffffffffffffffffffffffffffffffffffffff167fa58cff07db0adda3ab7a40bd2f18ab57210bf38391a52ffd2e8eee6b8bdec71a60405160405180910390a25050505050565b3373ffffffffffffffffffffffffffffffffffffffff16600160003373ffffffffffffffffffffffffffffffffffffffff1673ffffffffffffffffffffffffffffffffffffffff16815260200190815260200160002060000160009054906101000a900473ffffffffffffffffffffffffffffffffffffffff1673ffffffffffffffffffffffffffffffffffffffff16146110cb576040517f08c379a00000000000000000000000000000000000000000000000000000000081526004016110c2906122aa565b60405180910390fd5b600042905060008060009054906101000a900473ffffffffffffffffffffffffffffffffffffffff1690508073ffffffffffffffffffffffffffffffffffffffff1663b9a5bd8c8b8b8b8b8b8b8b8b8b6040518a63ffffffff1660e01b815260040161113f9998979695949392919061236c565b600060405180830381600087803b15801561115957600080fd5b505af115801561116d573d6000803e3d6000fd5b505050507fbeda0ccfae1034604cffef9c6e173d1278dcc2783d4e72cedb30026237b5ce898a8a8a8a8a8a8a8a8a6040516111b09998979695949392919061236c565b60405180910390a150505050505050505050565b6040518060a00160405280600073ffffffffffffffffffffffffffffffffffffffff168152602001606081526020016060815260200160608152602001606081525090565b600081519050919050565b600082825260208201905092915050565b6000819050602082019050919050565b600073ffffffffffffffffffffffffffffffffffffffff82169050919050565b600061126082611235565b9050919050565b61127081611255565b82525050565b600081519050919050565b600082825260208201905092915050565b60005b838110156112b0578082015181840152602081019050611295565b60008484015250505050565b6000601f19601f8301169050919050565b60006112d882611276565b6112e28185611281565b93506112f2818560208601611292565b6112fb816112bc565b840191505092915050565b600060a08301600083015161131e6000860182611267565b506020830151848203602086015261133682826112cd565b9150506040830151848203604086015261135082826112cd565b9150506060830151848203606086015261136a82826112cd565b9150506080830151848203608086015261138482826112cd565b9150508091505092915050565b600061139d8383611306565b905092915050565b6000602082019050919050565b60006113bd82611209565b6113c78185611214565b9350836020820285016113d985611225565b8060005b8581101561141557848403895281516113f68582611391565b9450611401836113a5565b925060208a019950506001810190506113dd565b50829750879550505050505092915050565b6000602082019050818103600083015261144181846113b2565b905092915050565b6000604051905090565b600080fd5b600080fd5b61146681611255565b811461147157600080fd5b50565b6000813590506114838161145d565b92915050565b600080fd5b600080fd5b7f4e487b7100000000000000000000000000000000000000000000000000000000600052604160045260246000fd5b6114cb826112bc565b810181811067ffffffffffffffff821117156114ea576114e9611493565b5b80604052505050565b60006114fd611449565b905061150982826114c2565b919050565b600067ffffffffffffffff82111561152957611528611493565b5b611532826112bc565b9050602081019050919050565b82818337600083830152505050565b600061156161155c8461150e565b6114f3565b90508281526020810184848401111561157d5761157c61148e565b5b61158884828561153f565b509392505050565b600082601f8301126115a5576115a4611489565b5b81356115b584826020860161154e565b91505092915050565b600080604083850312156115d5576115d4611453565b5b60006115e385828601611474565b925050602083013567ffffffffffffffff81111561160457611603611458565b5b61161085828601611590565b9150509250929050565b60008115159050919050565b61162f8161161a565b82525050565b600060208201905061164a6000830184611626565b92915050565b60006020828403121561166657611665611453565b5b600061167484828501611474565b91505092915050565b600080600080600060a0868803121561169957611698611453565b5b60006116a788828901611474565b955050602086013567ffffffffffffffff8111156116c8576116c7611458565b5b6116d488828901611590565b945050604086013567ffffffffffffffff8111156116f5576116f4611458565b5b61170188828901611590565b935050606086013567ffffffffffffffff81111561172257611721611458565b5b61172e88828901611590565b925050608086013567ffffffffffffffff81111561174f5761174e611458565b5b61175b88828901611590565b9150509295509295909350565b60006020828403121561177e5761177d611453565b5b600082013567ffffffffffffffff81111561179c5761179b611458565b5b6117a884828501611590565b91505092915050565b600080600080608085870312156117cb576117ca611453565b5b60006117d987828801611474565b945050602085013567ffffffffffffffff8111156117fa576117f9611458565b5b61180687828801611590565b935050604085013567ffffffffffffffff81111561182757611826611458565b5b61183387828801611590565b925050606085013567ffffffffffffffff81111561185457611853611458565b5b61186087828801611590565b91505092959194509250565b600080600080600080600080610100898b03121561188d5761188c611453565b5b600089013567ffffffffffffffff8111156118ab576118aa611458565b5b6118b78b828c01611590565b98505060206118c88b828c01611474565b975050604089013567ffffffffffffffff8111156118e9576118e8611458565b5b6118f58b828c01611590565b965050606089013567ffffffffffffffff81111561191657611915611458565b5b6119228b828c01611590565b95505060806119338b828c01611474565b94505060a089013567ffffffffffffffff81111561195457611953611458565b5b6119608b828c01611590565b93505060c089013567ffffffffffffffff81111561198157611980611458565b5b61198d8b828c01611590565b92505060e089013567ffffffffffffffff8111156119ae576119ad611458565b5b6119ba8b828c01611590565b9150509295985092959890939650565b7f4e487b7100000000000000000000000000000000000000000000000000000000600052603260045260246000fd5b7f4e487b7100000000000000000000000000000000000000000000000000000000600052602260045260246000fd5b60006002820490506001821680611a4057607f821691505b602082108103611a5357611a526119f9565b5b50919050565b7f4e487b7100000000000000000000000000000000000000000000000000000000600052601160045260246000fd5b6000819050919050565b6000611a9d82611a88565b91507fffffffffffffffffffffffffffffffffffffffffffffffffffffffffffffffff8203611acf57611ace611a59565b5b600182019050919050565b600081905092915050565b6000611af082611276565b611afa8185611ada565b9350611b0a818560208601611292565b80840191505092915050565b6000611b228284611ae5565b915081905092915050565b60008190508160005260206000209050919050565b60008154611b4f81611a28565b611b598186611ada565b94506001821660008114611b745760018114611b8957611bbc565b60ff1983168652811515820286019350611bbc565b611b9285611b2d565b60005b83811015611bb457815481890152600182019150602081019050611b95565b838801955050505b50505092915050565b6000611bd18284611b42565b915081905092915050565b611be581611255565b82525050565b6000602082019050611c006000830184611bdc565b92915050565b600067ffffffffffffffff821115611c2157611c20611493565b5b602082029050602081019050919050565b600080fd5b600080fd5b600080fd5b6000611c54611c4f8461150e565b6114f3565b905082815260208101848484011115611c7057611c6f61148e565b5b611c7b848285611292565b509392505050565b600082601f830112611c9857611c97611489565b5b8151611ca8848260208601611c41565b91505092915050565b600081519050611cc08161145d565b92915050565b611ccf81611a88565b8114611cda57600080fd5b50565b600081519050611cec81611cc6565b92915050565b60006101208284031215611d0957611d08611c37565b5b611d146101206114f3565b9050600082015167ffffffffffffffff811115611d3457611d33611c3c565b5b611d4084828501611c83565b6000830152506020611d5484828501611cb1565b6020830152506040611d6884828501611cb1565b604083015250606082015167ffffffffffffffff811115611d8c57611d8b611c3c565b5b611d9884828501611c83565b606083015250608082015167ffffffffffffffff811115611dbc57611dbb611c3c565b5b611dc884828501611c83565b60808301525060a082015167ffffffffffffffff811115611dec57611deb611c3c565b5b611df884828501611c83565b60a08301525060c082015167ffffffffffffffff811115611e1c57611e1b611c3c565b5b611e2884828501611c83565b60c08301525060e082015167ffffffffffffffff811115611e4c57611e4b611c3c565b5b611e5884828501611c83565b60e083015250610100611e6d84828501611cdd565b6101008301525092915050565b6000611e8d611e8884611c06565b6114f3565b90508083825260208201905060208402830185811115611eb057611eaf611c32565b5b835b81811015611ef757805167ffffffffffffffff811115611ed557611ed4611489565b5b808601611ee28982611cf2565b85526020850194505050602081019050611eb2565b5050509392505050565b600082601f830112611f1657611f15611489565b5b8151611f26848260208601611e7a565b91505092915050565b600060208284031215611f4557611f44611453565b5b600082015167ffffffffffffffff811115611f6357611f62611458565b5b611f6f84828501611f01565b91505092915050565b600082825260208201905092915050565b7f5468697320646f63746f7220616c7265616479206578697374732e0000000000600082015250565b6000611fbf601b83611f78565b9150611fca82611f89565b602082019050919050565b60006020820190508181036000830152611fee81611fb2565b9050919050565b60006020601f8301049050919050565b600082821b905092915050565b6000600883026120427fffffffffffffffffffffffffffffffffffffffffffffffffffffffffffffffff82612005565b61204c8683612005565b95508019841693508086168417925050509392505050565b6000819050919050565b600061208961208461207f84611a88565b612064565b611a88565b9050919050565b6000819050919050565b6120a38361206e565b6120b76120af82612090565b848454612012565b825550505050565b600090565b6120cc6120bf565b6120d781848461209a565b505050565b5b818110156120fb576120f06000826120c4565b6001810190506120dd565b5050565b601f8211156121405761211181611b2d565b61211a84611ff5565b81016020851015612129578190505b61213d61213585611ff5565b8301826120dc565b50505b505050565b600082821c905092915050565b600061216360001984600802612145565b1980831691505092915050565b600061217c8383612152565b9150826002028217905092915050565b61219582611276565b67ffffffffffffffff8111156121ae576121ad611493565b5b6121b88254611a28565b6121c38282856120ff565b600060209050601f8311600181146121f657600084156121e4578287015190505b6121ee8582612170565b865550612256565b601f19841661220486611b2d565b60005b8281101561222c57848901518255600182019150602085019450602081019050612207565b868310156122495784890151612245601f891682612152565b8355505b6001600288020188555050505b505050505050565b7f53656e646572206973206e6f74206120646f63746f7200000000000000000000600082015250565b6000612294601683611f78565b915061229f8261225e565b602082019050919050565b600060208201905081810360008301526122c381612287565b9050919050565b60006122d582611276565b6122df8185611f78565b93506122ef818560208601611292565b6122f8816112bc565b840191505092915050565b60006080820190506123186000830187611bdc565b818103602083015261232a81866122ca565b9050818103604083015261233e81856122ca565b9050818103606083015261235281846122ca565b905095945050505050565b61236681611a88565b82525050565b6000610120820190508181036000830152612387818c6122ca565b9050612396602083018b611bdc565b81810360408301526123a8818a6122ca565b905081810360608301526123bc81896122ca565b90506123cb6080830188611bdc565b81810360a08301526123dd81876122ca565b905081810360c08301526123f181866122ca565b905081810360e083015261240581856122ca565b905061241561010083018461235d565b9a995050505050505050505056fea26469706673582212204b792a8c75018ac7309ce47076f1ec242583a87146eeb41b5d5eeea5fce9ec9f64736f6c63430008110033",
  "immutableReferences": {},
  "source": "// SPDX-License-Identifier: MIT\npragma solidity >=0.4.22 <0.9.0;\npragma experimental ABIEncoderV2;\nimport \"./Patient.sol\";\n\ncontract Doctor { \n\n  address patientContractAddress;\n\n  constructor(address PatientContractAddress) {\n    patientContractAddress = PatientContractAddress;\n  }\n\n  struct DoctorDetails {\n    address id;\n    string name;\n    string clinicName;\n    string department;\n    string password;\n  }\n\n  mapping (address => DoctorDetails) doctors;\n  address[] doctorAddress;\n  \n  event PatientAdded(address indexed patientId);\n  event RecordAdded(string _cid, address _patientId, string _patientName, string _doctorName, address _doctorId,\n                    string symptoms, string diagnostic, string department, uint256 time); \n\n  modifier senderIsDoctor {\n    require(doctors[msg.sender].id == msg.sender, \"Sender is not a doctor\");\n    _;\n  }\n\n  function addDoctor(address _doctorId, string memory _doctorName, string memory _clinicName, string memory _dept, string memory _password) \n           public {\n    require(doctors[_doctorId].id != _doctorId, \"This doctor already exists.\");\n\n    DoctorDetails memory doctor = DoctorDetails(_doctorId, _doctorName, _clinicName, _dept, _password);\n    doctors[_doctorId] = doctor;\n    doctorAddress.push(_doctorId); \n\n    // emit DoctorAdded(_doctorId);\n  }\n  \n  function checkDoctor(address _doctorId, string memory _password) public view returns (bool) {\n    if (doctors[_doctorId].id == _doctorId && \n            keccak256(abi.encodePacked(doctors[_doctorId].password)) == keccak256(abi.encodePacked(_password))) {\n              return true;\n    }\n\n    return false;\n  }\n\n  function doctorAddPatient(address _patientId, string memory _name, string memory _department, string memory _password) public senderIsDoctor{\n    Patient patientContract = Patient(patientContractAddress);\n    \n    patientContract.addPatient(_patientId, _name, _department, _password);\n    \n    emit PatientAdded(_patientId);\n  }\n  \n  function doctorAddRecord(string memory _cid, address _patientId, string memory _patientName, string memory _doctorName, \n                     address _doctorId, string memory symptoms, string memory diagnostic, string memory department) public \n                     senderIsDoctor{\n    uint256 time = block.timestamp;\n    Patient patientContract = Patient(patientContractAddress);\n    \n    patientContract.addRecord(_cid, _patientId, _patientName, _doctorName, _doctorId, symptoms, diagnostic, department, time);\n    \n    emit RecordAdded(_cid, _patientId, _patientName, _doctorName, _doctorId, symptoms, diagnostic, department, time);\n  } \n\n  function doctorGetPatientRecords(address _patientId) public view {\n    Patient patientContract = Patient(patientContractAddress);\n    \n    patientContract.getRecords(_patientId);\n  } \n  \n  function getRegisteredDoctors() public view returns(DoctorDetails [] memory) {\n    DoctorDetails[] memory doctorArray = new DoctorDetails[](doctorAddress.length);\n    \n    for(uint i = 0; i < doctorAddress.length; i++) {\n      doctorArray[i] = doctors[doctorAddress[i]];\n    }\n    \n    return doctorArray;\n  }\n\n  // function getRegisteredDoctorsByDept(string memory deptName) public view returns(DoctorDetails [] memory, uint) {\n  //   DoctorDetails[] memory doctorArray = new DoctorDetails[](doctorAddress.length);\n  //   uint length = 0;\n    \n  //   for(uint i = 0; i < doctorAddress.length; i++) {\n  //     if (keccak256(abi.encodePacked(doctors[doctorAddress[i]].department)) == keccak256(abi.encodePacked(deptName))) {\n  //       // doctorArray.push(doctorAddress[i]);\n  //       doctorArray[i] = (doctors[doctorAddress[i]]);\n  //       length = i;\n  //     }\n  //   }\n  //   return (doctorArray[:length + 1], length + 1);\n  // }\n  function getRegisteredDoctorsByDept(string memory deptName) public view returns (DoctorDetails[] memory) {\n    DoctorDetails[] memory doctorArray = new DoctorDetails[](doctorAddress.length);\n    uint count = 0;\n\n    for (uint i = 0; i < doctorAddress.length; i++) {\n        if (keccak256(abi.encodePacked(doctors[doctorAddress[i]].department)) == keccak256(abi.encodePacked(deptName))) {\n            doctorArray[count] = doctors[doctorAddress[i]];\n            count++;\n        }\n    }\n\n    // Resize the array length to count\n    if (count < doctorArray.length) {\n        assembly {\n            mstore(doctorArray, count)\n        }\n    }\n\n    return doctorArray;\n  }\n//   function doctorTreatedPatient(address _patientId) public view returns(Doctor [] memory) {\n//     if(patientContract.doPatientExists(_patientId)) {\n//         patientRecords = patientContract.getRecords(_patientId);\n//         Doctor[] memory doctorArray = new Doctor[](patientRecords[msg.sender].records.length);\n//         for(uint i = 0; i < patientRecords[msg.sender].records.length; i++) {\n//         doctorArray[i] = doctors[patientRecords[msg.sender].records[i].doctorId];\n//         }\n//         return doctorArray;\n//     } else {\n//         return \"The Patient doesn't exist!\";\n//     }\n//   }\n} \n",
  "sourcePath": "/home/suvam/Documents/ProjectIntegrated/Using Axios/truffle/contracts/Doctor.sol",
  "compiler": {
    "name": "solc",
    "version": "0.8.17+commit.8df45f5f.Emscripten.clang"
  },
  "schemaVersion": "3.4.10",
  "updatedAt": "2023-03-06T09:46:09.940Z",
  "networkType": "ethereum",
  "devdoc": {
    "kind": "dev",
    "methods": {},
    "version": 1
  },
  "userdoc": {
    "kind": "user",
    "methods": {},
    "version": 1
  }
}