{
  "contractName": "Patient",
  "abi": [
    {
      "inputs": [
        {
          "internalType": "address",
          "name": "",
          "type": "address"
        }
      ],
      "name": "patientRecords",
      "outputs": [
        {
          "internalType": "address",
          "name": "id",
          "type": "address"
        }
      ],
      "stateMutability": "view",
      "type": "function",
      "constant": true
    },
    {
      "inputs": [
        {
          "internalType": "address",
          "name": "",
          "type": "address"
        }
      ],
      "name": "patients",
      "outputs": [
        {
          "internalType": "address",
          "name": "id",
          "type": "address"
        },
        {
          "internalType": "string",
          "name": "name",
          "type": "string"
        },
        {
          "internalType": "string",
          "name": "department",
          "type": "string"
        },
        {
          "internalType": "string",
          "name": "password",
          "type": "string"
        }
      ],
      "stateMutability": "view",
      "type": "function",
      "constant": true
    },
    {
      "inputs": [
        {
          "internalType": "address",
          "name": "_patientId",
          "type": "address"
        },
        {
          "internalType": "string",
          "name": "_name",
          "type": "string"
        },
        {
          "internalType": "string",
          "name": "_department",
          "type": "string"
        },
        {
          "internalType": "string",
          "name": "_password",
          "type": "string"
        }
      ],
      "name": "addPatient",
      "outputs": [],
      "stateMutability": "nonpayable",
      "type": "function"
    },
    {
      "inputs": [
        {
          "internalType": "string",
          "name": "_cid",
          "type": "string"
        },
        {
          "internalType": "address",
          "name": "_patientId",
          "type": "address"
        },
        {
          "internalType": "string",
          "name": "_patientName",
          "type": "string"
        },
        {
          "internalType": "string",
          "name": "_doctorName",
          "type": "string"
        },
        {
          "internalType": "address",
          "name": "_doctorId",
          "type": "address"
        },
        {
          "internalType": "string",
          "name": "symptoms",
          "type": "string"
        },
        {
          "internalType": "string",
          "name": "diagnostic",
          "type": "string"
        },
        {
          "internalType": "string",
          "name": "department",
          "type": "string"
        },
        {
          "internalType": "uint256",
          "name": "time",
          "type": "uint256"
        }
      ],
      "name": "addRecord",
      "outputs": [],
      "stateMutability": "nonpayable",
      "type": "function"
    },
    {
      "inputs": [
        {
          "internalType": "address",
          "name": "_patientId",
          "type": "address"
        }
      ],
      "name": "getRecords",
      "outputs": [
        {
          "components": [
            {
              "internalType": "string",
              "name": "cid",
              "type": "string"
            },
            {
              "internalType": "address",
              "name": "patientId",
              "type": "address"
            },
            {
              "internalType": "address",
              "name": "doctorId",
              "type": "address"
            },
            {
              "internalType": "string",
              "name": "patientName",
              "type": "string"
            },
            {
              "internalType": "string",
              "name": "doctorName",
              "type": "string"
            },
            {
              "internalType": "string",
              "name": "symptoms",
              "type": "string"
            },
            {
              "internalType": "string",
              "name": "diagnostic",
              "type": "string"
            },
            {
              "internalType": "string",
              "name": "department",
              "type": "string"
            },
            {
              "internalType": "uint256",
              "name": "timeAdded",
              "type": "uint256"
            }
          ],
          "internalType": "struct Patient.Record[]",
          "name": "",
          "type": "tuple[]"
        }
      ],
      "stateMutability": "view",
      "type": "function",
      "constant": true
    },
    {
      "inputs": [
        {
          "internalType": "address",
          "name": "_patientId",
          "type": "address"
        },
        {
          "internalType": "string",
          "name": "_password",
          "type": "string"
        }
      ],
      "name": "checkPatient",
      "outputs": [
        {
          "internalType": "bool",
          "name": "",
          "type": "bool"
        }
      ],
      "stateMutability": "view",
      "type": "function",
      "constant": true
    },
    {
      "inputs": [],
      "name": "getRegisteredPatients",
      "outputs": [
        {
          "components": [
            {
              "internalType": "address",
              "name": "id",
              "type": "address"
            },
            {
              "internalType": "string",
              "name": "name",
              "type": "string"
            },
            {
              "internalType": "string",
              "name": "department",
              "type": "string"
            },
            {
              "internalType": "string",
              "name": "password",
              "type": "string"
            }
          ],
          "internalType": "struct Patient.PatientDetails[]",
          "name": "",
          "type": "tuple[]"
        }
      ],
      "stateMutability": "view",
      "type": "function",
      "constant": true
    },
    {
      "inputs": [
        {
          "internalType": "address",
          "name": "patientID",
          "type": "address"
        }
      ],
      "name": "getRegisteredPatientsByID",
      "outputs": [
        {
          "components": [
            {
              "internalType": "string",
              "name": "cid",
              "type": "string"
            },
            {
              "internalType": "address",
              "name": "patientId",
              "type": "address"
            },
            {
              "internalType": "address",
              "name": "doctorId",
              "type": "address"
            },
            {
              "internalType": "string",
              "name": "patientName",
              "type": "string"
            },
            {
              "internalType": "string",
              "name": "doctorName",
              "type": "string"
            },
            {
              "internalType": "string",
              "name": "symptoms",
              "type": "string"
            },
            {
              "internalType": "string",
              "name": "diagnostic",
              "type": "string"
            },
            {
              "internalType": "string",
              "name": "department",
              "type": "string"
            },
            {
              "internalType": "uint256",
              "name": "timeAdded",
              "type": "uint256"
            }
          ],
          "internalType": "struct Patient.Record[]",
          "name": "",
          "type": "tuple[]"
        }
      ],
      "stateMutability": "view",
      "type": "function",
      "constant": true
    },
    {
      "inputs": [
        {
          "internalType": "string",
          "name": "deptName",
          "type": "string"
        }
      ],
      "name": "getRegisteredPatientsByDept",
      "outputs": [
        {
          "components": [
            {
              "internalType": "address",
              "name": "id",
              "type": "address"
            },
            {
              "internalType": "string",
              "name": "name",
              "type": "string"
            },
            {
              "internalType": "string",
              "name": "department",
              "type": "string"
            },
            {
              "internalType": "string",
              "name": "password",
              "type": "string"
            }
          ],
          "internalType": "struct Patient.PatientDetails[]",
          "name": "",
          "type": "tuple[]"
        }
      ],
      "stateMutability": "view",
      "type": "function",
      "constant": true
    }
  ],
  "bytecode": "0x608060405234801561001057600080fd5b50612bbc806100206000396000f3fe608060405234801561001057600080fd5b50600436106100935760003560e01c806335434a4f1161006657806335434a4f14610135578063a0076e8414610165578063b9a5bd8c14610195578063c9eabd84146101b1578063d40303b0146101e157610093565b80630869cfbc1461009857806309560056146100cb578063200a1b91146100e95780632c76361f14610119575b600080fd5b6100b260048036038101906100ad9190611d00565b610211565b6040516100c29493929190611dcc565b60405180910390f35b6100d36103f9565b6040516100e09190611fb2565b60405180910390f35b61010360048036038101906100fe9190611d00565b610734565b6040516101109190611fd4565b60405180910390f35b610133600480360381019061012e9190612124565b610772565b005b61014f600480360381019061014a91906121df565b6109b1565b60405161015c9190611fb2565b60405180910390f35b61017f600480360381019061017a9190611d00565b610ddd565b60405161018c91906123eb565b60405180910390f35b6101af60048036038101906101aa9190612439565b611372565b005b6101cb60048036038101906101c691906125ab565b61164a565b6040516101d89190612622565b60405180910390f35b6101fb60048036038101906101f69190611d00565b61178c565b60405161020891906123eb565b60405180910390f35b60006020528060005260406000206000915090508060000160009054906101000a900473ffffffffffffffffffffffffffffffffffffffff169080600101805461025a9061266c565b80601f01602080910402602001604051908101604052809291908181526020018280546102869061266c565b80156102d35780601f106102a8576101008083540402835291602001916102d3565b820191906000526020600020905b8154815290600101906020018083116102b657829003601f168201915b5050505050908060020180546102e89061266c565b80601f01602080910402602001604051908101604052809291908181526020018280546103149061266c565b80156103615780601f1061033657610100808354040283529160200191610361565b820191906000526020600020905b81548152906001019060200180831161034457829003601f168201915b5050505050908060030180546103769061266c565b80601f01602080910402602001604051908101604052809291908181526020018280546103a29061266c565b80156103ef5780601f106103c4576101008083540402835291602001916103ef565b820191906000526020600020905b8154815290600101906020018083116103d257829003601f168201915b5050505050905084565b6060600060028054905067ffffffffffffffff81111561041c5761041b611ff9565b5b60405190808252806020026020018201604052801561045557816020015b610442611c50565b81526020019060019003908161043a5790505b50905060005b60028054905081101561072c576000806002838154811061047f5761047e61269d565b5b9060005260206000200160009054906101000a900473ffffffffffffffffffffffffffffffffffffffff1673ffffffffffffffffffffffffffffffffffffffff1673ffffffffffffffffffffffffffffffffffffffff1681526020019081526020016000206040518060800160405290816000820160009054906101000a900473ffffffffffffffffffffffffffffffffffffffff1673ffffffffffffffffffffffffffffffffffffffff1673ffffffffffffffffffffffffffffffffffffffff1681526020016001820180546105559061266c565b80601f01602080910402602001604051908101604052809291908181526020018280546105819061266c565b80156105ce5780601f106105a3576101008083540402835291602001916105ce565b820191906000526020600020905b8154815290600101906020018083116105b157829003601f168201915b505050505081526020016002820180546105e79061266c565b80601f01602080910402602001604051908101604052809291908181526020018280546106139061266c565b80156106605780601f1061063557610100808354040283529160200191610660565b820191906000526020600020905b81548152906001019060200180831161064357829003601f168201915b505050505081526020016003820180546106799061266c565b80601f01602080910402602001604051908101604052809291908181526020018280546106a59061266c565b80156106f25780601f106106c7576101008083540402835291602001916106f2565b820191906000526020600020905b8154815290600101906020018083116106d557829003601f168201915b50505050508152505082828151811061070e5761070d61269d565b5b60200260200101819052508080610724906126fb565b91505061045b565b508091505090565b60016020528060005260406000206000915090508060000160009054906101000a900473ffffffffffffffffffffffffffffffffffffffff16905081565b8373ffffffffffffffffffffffffffffffffffffffff166000808673ffffffffffffffffffffffffffffffffffffffff1673ffffffffffffffffffffffffffffffffffffffff16815260200190815260200160002060000160009054906101000a900473ffffffffffffffffffffffffffffffffffffffff1673ffffffffffffffffffffffffffffffffffffffff1603610841576040517f08c379a00000000000000000000000000000000000000000000000000000000081526004016108389061278f565b60405180910390fd5b600060405180608001604052808673ffffffffffffffffffffffffffffffffffffffff168152602001858152602001848152602001838152509050806000808773ffffffffffffffffffffffffffffffffffffffff1673ffffffffffffffffffffffffffffffffffffffff16815260200190815260200160002060008201518160000160006101000a81548173ffffffffffffffffffffffffffffffffffffffff021916908373ffffffffffffffffffffffffffffffffffffffff1602179055506020820151816001019081610917919061295b565b50604082015181600201908161092d919061295b565b506060820151816003019081610943919061295b565b509050506002859080600181540180825580915050600190039060005260206000200160009091909190916101000a81548173ffffffffffffffffffffffffffffffffffffffff021916908373ffffffffffffffffffffffffffffffffffffffff1602179055505050505050565b6060600060028054905067ffffffffffffffff8111156109d4576109d3611ff9565b5b604051908082528060200260200182016040528015610a0d57816020015b6109fa611c50565b8152602001906001900390816109f25790505b5090506000805b600280549050811015610dc55784604051602001610a329190612a69565b6040516020818303038152906040528051906020012060008060028481548110610a5f57610a5e61269d565b5b9060005260206000200160009054906101000a900473ffffffffffffffffffffffffffffffffffffffff1673ffffffffffffffffffffffffffffffffffffffff1673ffffffffffffffffffffffffffffffffffffffff168152602001908152602001600020600201604051602001610ad79190612b03565b6040516020818303038152906040528051906020012003610db25760008060028381548110610b0957610b0861269d565b5b9060005260206000200160009054906101000a900473ffffffffffffffffffffffffffffffffffffffff1673ffffffffffffffffffffffffffffffffffffffff1673ffffffffffffffffffffffffffffffffffffffff1681526020019081526020016000206040518060800160405290816000820160009054906101000a900473ffffffffffffffffffffffffffffffffffffffff1673ffffffffffffffffffffffffffffffffffffffff1673ffffffffffffffffffffffffffffffffffffffff168152602001600182018054610bdf9061266c565b80601f0160208091040260200160405190810160405280929190818152602001828054610c0b9061266c565b8015610c585780601f10610c2d57610100808354040283529160200191610c58565b820191906000526020600020905b815481529060010190602001808311610c3b57829003601f168201915b50505050508152602001600282018054610c719061266c565b80601f0160208091040260200160405190810160405280929190818152602001828054610c9d9061266c565b8015610cea5780601f10610cbf57610100808354040283529160200191610cea565b820191906000526020600020905b815481529060010190602001808311610ccd57829003601f168201915b50505050508152602001600382018054610d039061266c565b80601f0160208091040260200160405190810160405280929190818152602001828054610d2f9061266c565b8015610d7c5780601f10610d5157610100808354040283529160200191610d7c565b820191906000526020600020905b815481529060010190602001808311610d5f57829003601f168201915b505050505081525050838381518110610d9857610d9761269d565b5b60200260200101819052508180610dae906126fb565b9250505b8080610dbd906126fb565b915050610a14565b508151811015610dd3578082525b8192505050919050565b6060818073ffffffffffffffffffffffffffffffffffffffff166000808373ffffffffffffffffffffffffffffffffffffffff1673ffffffffffffffffffffffffffffffffffffffff16815260200190815260200160002060000160009054906101000a900473ffffffffffffffffffffffffffffffffffffffff1673ffffffffffffffffffffffffffffffffffffffff1614610eaf576040517f08c379a0000000000000000000000000000000000000000000000000000000008152600401610ea690612b66565b60405180910390fd5b600160008473ffffffffffffffffffffffffffffffffffffffff1673ffffffffffffffffffffffffffffffffffffffff168152602001908152602001600020600101805480602002602001604051908101604052809291908181526020016000905b82821015611366578382906000526020600020906009020160405180610120016040529081600082018054610f459061266c565b80601f0160208091040260200160405190810160405280929190818152602001828054610f719061266c565b8015610fbe5780601f10610f9357610100808354040283529160200191610fbe565b820191906000526020600020905b815481529060010190602001808311610fa157829003601f168201915b505050505081526020016001820160009054906101000a900473ffffffffffffffffffffffffffffffffffffffff1673ffffffffffffffffffffffffffffffffffffffff1673ffffffffffffffffffffffffffffffffffffffff1681526020016002820160009054906101000a900473ffffffffffffffffffffffffffffffffffffffff1673ffffffffffffffffffffffffffffffffffffffff1673ffffffffffffffffffffffffffffffffffffffff1681526020016003820180546110839061266c565b80601f01602080910402602001604051908101604052809291908181526020018280546110af9061266c565b80156110fc5780601f106110d1576101008083540402835291602001916110fc565b820191906000526020600020905b8154815290600101906020018083116110df57829003601f168201915b505050505081526020016004820180546111159061266c565b80601f01602080910402602001604051908101604052809291908181526020018280546111419061266c565b801561118e5780601f106111635761010080835404028352916020019161118e565b820191906000526020600020905b81548152906001019060200180831161117157829003601f168201915b505050505081526020016005820180546111a79061266c565b80601f01602080910402602001604051908101604052809291908181526020018280546111d39061266c565b80156112205780601f106111f557610100808354040283529160200191611220565b820191906000526020600020905b81548152906001019060200180831161120357829003601f168201915b505050505081526020016006820180546112399061266c565b80601f01602080910402602001604051908101604052809291908181526020018280546112659061266c565b80156112b25780601f10611287576101008083540402835291602001916112b2565b820191906000526020600020905b81548152906001019060200180831161129557829003601f168201915b505050505081526020016007820180546112cb9061266c565b80601f01602080910402602001604051908101604052809291908181526020018280546112f79061266c565b80156113445780601f1061131957610100808354040283529160200191611344565b820191906000526020600020905b81548152906001019060200180831161132757829003601f168201915b5050505050815260200160088201548152505081526020019060010190610f11565b50505050915050919050565b878073ffffffffffffffffffffffffffffffffffffffff166000808373ffffffffffffffffffffffffffffffffffffffff1673ffffffffffffffffffffffffffffffffffffffff16815260200190815260200160002060000160009054906101000a900473ffffffffffffffffffffffffffffffffffffffff1673ffffffffffffffffffffffffffffffffffffffff1614611442576040517f08c379a000000000000000000000000000000000000000000000000000000000815260040161143990612b66565b60405180910390fd5b60006040518061012001604052808c81526020018b73ffffffffffffffffffffffffffffffffffffffff1681526020018873ffffffffffffffffffffffffffffffffffffffff1681526020018a8152602001898152602001878152602001868152602001858152602001848152509050600160008b73ffffffffffffffffffffffffffffffffffffffff1673ffffffffffffffffffffffffffffffffffffffff1681526020019081526020016000206001018190806001815401808255809150506001900390600052602060002090600902016000909190919091506000820151816000019081611533919061295b565b5060208201518160010160006101000a81548173ffffffffffffffffffffffffffffffffffffffff021916908373ffffffffffffffffffffffffffffffffffffffff16021790555060408201518160020160006101000a81548173ffffffffffffffffffffffffffffffffffffffff021916908373ffffffffffffffffffffffffffffffffffffffff16021790555060608201518160030190816115d7919061295b565b5060808201518160040190816115ed919061295b565b5060a0820151816005019081611603919061295b565b5060c0820151816006019081611619919061295b565b5060e082015181600701908161162f919061295b565b50610100820151816008015550505050505050505050505050565b60008273ffffffffffffffffffffffffffffffffffffffff166000808573ffffffffffffffffffffffffffffffffffffffff1673ffffffffffffffffffffffffffffffffffffffff16815260200190815260200160002060000160009054906101000a900473ffffffffffffffffffffffffffffffffffffffff1673ffffffffffffffffffffffffffffffffffffffff161480156117735750816040516020016116f49190612a69565b604051602081830303815290604052805190602001206000808573ffffffffffffffffffffffffffffffffffffffff1673ffffffffffffffffffffffffffffffffffffffff16815260200190815260200160002060030160405160200161175b9190612b03565b60405160208183030381529060405280519060200120145b156117815760019050611786565b600090505b92915050565b6060600160008373ffffffffffffffffffffffffffffffffffffffff1673ffffffffffffffffffffffffffffffffffffffff168152602001908152602001600020600101805480602002602001604051908101604052809291908181526020016000905b82821015611c455783829060005260206000209060090201604051806101200160405290816000820180546118249061266c565b80601f01602080910402602001604051908101604052809291908181526020018280546118509061266c565b801561189d5780601f106118725761010080835404028352916020019161189d565b820191906000526020600020905b81548152906001019060200180831161188057829003601f168201915b505050505081526020016001820160009054906101000a900473ffffffffffffffffffffffffffffffffffffffff1673ffffffffffffffffffffffffffffffffffffffff1673ffffffffffffffffffffffffffffffffffffffff1681526020016002820160009054906101000a900473ffffffffffffffffffffffffffffffffffffffff1673ffffffffffffffffffffffffffffffffffffffff1673ffffffffffffffffffffffffffffffffffffffff1681526020016003820180546119629061266c565b80601f016020809104026020016040519081016040528092919081815260200182805461198e9061266c565b80156119db5780601f106119b0576101008083540402835291602001916119db565b820191906000526020600020905b8154815290600101906020018083116119be57829003601f168201915b505050505081526020016004820180546119f49061266c565b80601f0160208091040260200160405190810160405280929190818152602001828054611a209061266c565b8015611a6d5780601f10611a4257610100808354040283529160200191611a6d565b820191906000526020600020905b815481529060010190602001808311611a5057829003601f168201915b50505050508152602001600582018054611a869061266c565b80601f0160208091040260200160405190810160405280929190818152602001828054611ab29061266c565b8015611aff5780601f10611ad457610100808354040283529160200191611aff565b820191906000526020600020905b815481529060010190602001808311611ae257829003601f168201915b50505050508152602001600682018054611b189061266c565b80601f0160208091040260200160405190810160405280929190818152602001828054611b449061266c565b8015611b915780601f10611b6657610100808354040283529160200191611b91565b820191906000526020600020905b815481529060010190602001808311611b7457829003601f168201915b50505050508152602001600782018054611baa9061266c565b80601f0160208091040260200160405190810160405280929190818152602001828054611bd69061266c565b8015611c235780601f10611bf857610100808354040283529160200191611c23565b820191906000526020600020905b815481529060010190602001808311611c0657829003601f168201915b50505050508152602001600882015481525050815260200190600101906117f0565b505050509050919050565b6040518060800160405280600073ffffffffffffffffffffffffffffffffffffffff1681526020016060815260200160608152602001606081525090565b6000604051905090565b600080fd5b600080fd5b600073ffffffffffffffffffffffffffffffffffffffff82169050919050565b6000611ccd82611ca2565b9050919050565b611cdd81611cc2565b8114611ce857600080fd5b50565b600081359050611cfa81611cd4565b92915050565b600060208284031215611d1657611d15611c98565b5b6000611d2484828501611ceb565b91505092915050565b611d3681611cc2565b82525050565b600081519050919050565b600082825260208201905092915050565b60005b83811015611d76578082015181840152602081019050611d5b565b60008484015250505050565b6000601f19601f8301169050919050565b6000611d9e82611d3c565b611da88185611d47565b9350611db8818560208601611d58565b611dc181611d82565b840191505092915050565b6000608082019050611de16000830187611d2d565b8181036020830152611df38186611d93565b90508181036040830152611e078185611d93565b90508181036060830152611e1b8184611d93565b905095945050505050565b600081519050919050565b600082825260208201905092915050565b6000819050602082019050919050565b611e5b81611cc2565b82525050565b600082825260208201905092915050565b6000611e7d82611d3c565b611e878185611e61565b9350611e97818560208601611d58565b611ea081611d82565b840191505092915050565b6000608083016000830151611ec36000860182611e52565b5060208301518482036020860152611edb8282611e72565b91505060408301518482036040860152611ef58282611e72565b91505060608301518482036060860152611f0f8282611e72565b9150508091505092915050565b6000611f288383611eab565b905092915050565b6000602082019050919050565b6000611f4882611e26565b611f528185611e31565b935083602082028501611f6485611e42565b8060005b85811015611fa05784840389528151611f818582611f1c565b9450611f8c83611f30565b925060208a01995050600181019050611f68565b50829750879550505050505092915050565b60006020820190508181036000830152611fcc8184611f3d565b905092915050565b6000602082019050611fe96000830184611d2d565b92915050565b600080fd5b600080fd5b7f4e487b7100000000000000000000000000000000000000000000000000000000600052604160045260246000fd5b61203182611d82565b810181811067ffffffffffffffff821117156120505761204f611ff9565b5b80604052505050565b6000612063611c8e565b905061206f8282612028565b919050565b600067ffffffffffffffff82111561208f5761208e611ff9565b5b61209882611d82565b9050602081019050919050565b82818337600083830152505050565b60006120c76120c284612074565b612059565b9050828152602081018484840111156120e3576120e2611ff4565b5b6120ee8482856120a5565b509392505050565b600082601f83011261210b5761210a611fef565b5b813561211b8482602086016120b4565b91505092915050565b6000806000806080858703121561213e5761213d611c98565b5b600061214c87828801611ceb565b945050602085013567ffffffffffffffff81111561216d5761216c611c9d565b5b612179878288016120f6565b935050604085013567ffffffffffffffff81111561219a57612199611c9d565b5b6121a6878288016120f6565b925050606085013567ffffffffffffffff8111156121c7576121c6611c9d565b5b6121d3878288016120f6565b91505092959194509250565b6000602082840312156121f5576121f4611c98565b5b600082013567ffffffffffffffff81111561221357612212611c9d565b5b61221f848285016120f6565b91505092915050565b600081519050919050565b600082825260208201905092915050565b6000819050602082019050919050565b6000819050919050565b61226781612254565b82525050565b600061012083016000830151848203600086015261228b8282611e72565b91505060208301516122a06020860182611e52565b5060408301516122b36040860182611e52565b50606083015184820360608601526122cb8282611e72565b915050608083015184820360808601526122e58282611e72565b91505060a083015184820360a08601526122ff8282611e72565b91505060c083015184820360c08601526123198282611e72565b91505060e083015184820360e08601526123338282611e72565b91505061010083015161234a61010086018261225e565b508091505092915050565b6000612361838361226d565b905092915050565b6000602082019050919050565b600061238182612228565b61238b8185612233565b93508360208202850161239d85612244565b8060005b858110156123d957848403895281516123ba8582612355565b94506123c583612369565b925060208a019950506001810190506123a1565b50829750879550505050505092915050565b600060208201905081810360008301526124058184612376565b905092915050565b61241681612254565b811461242157600080fd5b50565b6000813590506124338161240d565b92915050565b60008060008060008060008060006101208a8c03121561245c5761245b611c98565b5b60008a013567ffffffffffffffff81111561247a57612479611c9d565b5b6124868c828d016120f6565b99505060206124978c828d01611ceb565b98505060408a013567ffffffffffffffff8111156124b8576124b7611c9d565b5b6124c48c828d016120f6565b97505060608a013567ffffffffffffffff8111156124e5576124e4611c9d565b5b6124f18c828d016120f6565b96505060806125028c828d01611ceb565b95505060a08a013567ffffffffffffffff81111561252357612522611c9d565b5b61252f8c828d016120f6565b94505060c08a013567ffffffffffffffff8111156125505761254f611c9d565b5b61255c8c828d016120f6565b93505060e08a013567ffffffffffffffff81111561257d5761257c611c9d565b5b6125898c828d016120f6565b92505061010061259b8c828d01612424565b9150509295985092959850929598565b600080604083850312156125c2576125c1611c98565b5b60006125d085828601611ceb565b925050602083013567ffffffffffffffff8111156125f1576125f0611c9d565b5b6125fd858286016120f6565b9150509250929050565b60008115159050919050565b61261c81612607565b82525050565b60006020820190506126376000830184612613565b92915050565b7f4e487b7100000000000000000000000000000000000000000000000000000000600052602260045260246000fd5b6000600282049050600182168061268457607f821691505b6020821081036126975761269661263d565b5b50919050565b7f4e487b7100000000000000000000000000000000000000000000000000000000600052603260045260246000fd5b7f4e487b7100000000000000000000000000000000000000000000000000000000600052601160045260246000fd5b600061270682612254565b91507fffffffffffffffffffffffffffffffffffffffffffffffffffffffffffffffff8203612738576127376126cc565b5b600182019050919050565b7f546869732070617469656e7420616c7265616479206578697374732e00000000600082015250565b6000612779601c83611d47565b915061278482612743565b602082019050919050565b600060208201905081810360008301526127a88161276c565b9050919050565b60008190508160005260206000209050919050565b60006020601f8301049050919050565b600082821b905092915050565b6000600883026128117fffffffffffffffffffffffffffffffffffffffffffffffffffffffffffffffff826127d4565b61281b86836127d4565b95508019841693508086168417925050509392505050565b6000819050919050565b600061285861285361284e84612254565b612833565b612254565b9050919050565b6000819050919050565b6128728361283d565b61288661287e8261285f565b8484546127e1565b825550505050565b600090565b61289b61288e565b6128a6818484612869565b505050565b5b818110156128ca576128bf600082612893565b6001810190506128ac565b5050565b601f82111561290f576128e0816127af565b6128e9846127c4565b810160208510156128f8578190505b61290c612904856127c4565b8301826128ab565b50505b505050565b600082821c905092915050565b600061293260001984600802612914565b1980831691505092915050565b600061294b8383612921565b9150826002028217905092915050565b61296482611d3c565b67ffffffffffffffff81111561297d5761297c611ff9565b5b612987825461266c565b6129928282856128ce565b600060209050601f8311600181146129c557600084156129b3578287015190505b6129bd858261293f565b865550612a25565b601f1984166129d3866127af565b60005b828110156129fb578489015182556001820191506020850194506020810190506129d6565b86831015612a185784890151612a14601f891682612921565b8355505b6001600288020188555050505b505050505050565b600081905092915050565b6000612a4382611d3c565b612a4d8185612a2d565b9350612a5d818560208601611d58565b80840191505092915050565b6000612a758284612a38565b915081905092915050565b60008154612a8d8161266c565b612a978186612a2d565b94506001821660008114612ab25760018114612ac757612afa565b60ff1983168652811515820286019350612afa565b612ad0856127af565b60005b83811015612af257815481890152600182019150602081019050612ad3565b838801955050505b50505092915050565b6000612b0f8284612a80565b915081905092915050565b7f50617469656e7420646f6573206e6f7420657869737400000000000000000000600082015250565b6000612b50601683611d47565b9150612b5b82612b1a565b602082019050919050565b60006020820190508181036000830152612b7f81612b43565b905091905056fea264697066735822122070ecc425da0a30d48320c8ecd8fb39916aece8304d631ddcdde1574cadb261a264736f6c63430008110033",
  "immutableReferences": {},
  "source": "// SPDX-License-Identifier: MIT\npragma solidity >=0.4.22 <0.9.0;\n\ncontract Patient { \n  \n  struct Record { \n    string cid;\n    address patientId;\n    address doctorId;\n    string patientName;\n    string doctorName;\n    string symptoms;\n    string diagnostic;\n    string department;\n    uint256 timeAdded;\n  }\n\n  struct PatientDetails {\n    address id;\n    string name;\n    string department;\n    string password;\n  }\n\n  struct PatientRecords {\n    address id;\n    Record[] records;\n  }\n\n  mapping (address => PatientDetails) public patients;\n  mapping (address => PatientRecords) public patientRecords;\n\n  address[] patientAddress;\n\n  modifier patientExists(address patientId) {\n    require(patients[patientId].id == patientId, \"Patient does not exist\");\n    _;\n  }\n  \n//   function doPatientExists(address patientId) public view returns(bool){\n//     if(patients[patientId].id == address(0))\n//         return false;\n//     return true;\n//   }\n\n  function addPatient(address _patientId, string memory _name, string memory _department, string memory _password) public {\n    require(patients[_patientId].id != _patientId, \"This patient already exists.\");\n    \n    PatientDetails memory patient = PatientDetails(_patientId, _name, _department, _password);\n    patients[_patientId] = patient;\n    patientAddress.push(_patientId);\n\n    // emit PatientAdded(_patientId);\n  }\n\n  function addRecord(string memory _cid, address _patientId, string memory _patientName, string memory _doctorName, \n                     address _doctorId, string memory symptoms, string memory diagnostic, string memory department, \n                     uint256 time) public \n                     patientExists(_patientId){\n    Record memory record = Record(_cid, _patientId, _doctorId, _patientName, _doctorName, symptoms, diagnostic, department, time);\n    \n    patientRecords[_patientId].records.push(record);\n  } \n\n  function getRecords(address _patientId) public view patientExists(_patientId) returns (Record[] memory) {\n    return patientRecords[_patientId].records;\n  } \n\n  function checkPatient(address _patientId, string memory _password) public view returns (bool) {\n    if (patients[_patientId].id == _patientId && \n            keccak256(abi.encodePacked(patients[_patientId].password)) == keccak256(abi.encodePacked(_password))) {\n              return true;\n    }\n    \n    return false;\n  }\n\n  function getRegisteredPatients() public view returns(PatientDetails [] memory) {\n    PatientDetails[] memory patientArray = new PatientDetails[](patientAddress.length);\n    \n    for(uint i = 0; i < patientAddress.length; i++) {\n      patientArray[i] = patients[patientAddress[i]];\n    }\n    \n    return patientArray;\n  } \n\n  function getRegisteredPatientsByID(address patientID) public view returns (Record[] memory) {\n    return patientRecords[patientID].records;\n  }\n\n  function getRegisteredPatientsByDept(string memory deptName) public view returns (PatientDetails[] memory) {\n    PatientDetails[] memory patientArray = new PatientDetails[](patientAddress.length);\n    uint count = 0;\n\n    for (uint i = 0; i < patientAddress.length; i++) {\n        if (keccak256(abi.encodePacked(patients[patientAddress[i]].department)) == keccak256(abi.encodePacked(deptName))) {\n            patientArray[count] = patients[patientAddress[i]];\n            count++;\n        }\n    }\n\n    // Resize the array length to count\n    if (count < patientArray.length) {\n        assembly {\n            mstore(patientArray, count)\n        }\n    }\n\n    return patientArray;\n  }\n} \n",
  "sourcePath": "/home/suvam/Documents/ProjectIntegrated/Using Axios/truffle/contracts/Patient.sol",
  "compiler": {
    "name": "solc",
    "version": "0.8.17+commit.8df45f5f.Emscripten.clang"
  },
  "schemaVersion": "3.4.10",
  "updatedAt": "2023-03-06T09:46:09.965Z",
  "networkType": "ethereum",
  "devdoc": {
    "kind": "dev",
    "methods": {},
    "version": 1
  },
  "userdoc": {
    "kind": "user",
    "methods": {},
    "version": 1
  }
}